:100000000C94EA000C9412010C9412010C9412014D
:100010000C9412010C9412010C9412010C94120114
:100020000C9412010C9412010C9412010C94120104
:100030000C9412010C9412010C941A040C941201E9
:100040000C94D0030C9412010C94BD020C949702F2
:100050000C9412010C9412010C9412010C941201D4
:100060000C9412010C941201EB04F304F604040541
:100070000C050F0517052A05005EBCE2613FDD8314
:10008000C29C7E20A3FD1F419DC3217FFCA2401E78
:100090005F01E3BD3E6082DC237D9FC1421CFEA068
:1000A000E1BF5D0380DE3C62BEE0025CDF81633D58
:1000B0007C22C09E1D43A1FF4618FAA427799BC548
:1000C00084DA3866E5BB5907DB856739BAE4065838
:1000D0001947A5FB7826C49A653BD987045AB8E628
:1000E000A7F91B45C6987A24F8A6441A99C7257B18
:1000F0003A6486D85B05E7B98CD2306EEDB3510F08
:100100004E10F2AC2F7193CD114FADF3702ECC92F7
:10011000D38D6F31B2EC0E50AFF1134DCE90722CE7
:100120006D33D18F0C52B0EE326C8ED0530DEFB1D7
:10013000F0AE4C1291CF2D73CA947628ABF51749C7
:100140000856B4EA6937D58B5709EBB536688AD4B7
:1001500095CB2977F4AA4816E9B7550B88D6346AA7
:100160002B7597C94A14F6A8742AC896154BA9F797
:10017000B6E80A54D7896B35000000002400270038
:100180002A0000000000250028002B0000000008C5
:10019000000201000003040700000000000000004E
:1001A00000000000230026002900040404040404C5
:1001B0000404020202020202030303030303010216
:1001C00004081020408001020408102001020408E5
:1001D0001020840D11241FBECFEFD8E0DEBFCDBFAD
:1001E00011E0A0E0B1E0E2E7F9E202C005900D9273
:1001F000A03BB107D9F722E0A0EBB1E001C01D920E
:10020000A43CB207E1F710E0CAEED0E004C02197A9
:10021000FE010E94690EC93ED107C9F70E945F091D
:100220000C94B7140C940000CF92DF92EF92FF92DF
:100230000F931F93CF93DF936C017A018B01C0E082
:10024000D0E0CE15DF0589F0D8016D918D01D60182
:10025000ED91FC910190F081E02DC6010995892B6B
:1002600011F47E0102C02196ECCFC701DF91CF913E
:100270001F910F91FF90EF90DF90CF900895FC01B8
:10028000918D828D981761F0828DDF01A80FB11DCD
:100290005D968C91928D9F5F9F73928F90E00895F1
:1002A0008FEF9FEF0895FC01918D828D981731F0AB
:1002B000828DE80FF11D858D90E008958FEF9FEFFF
:1002C0000895FC01918D228D892F90E0805C9F4FD5
:1002D000821B91098F73992708958CEE91E00E94FB
:1002E000610121E0892B09F420E0822F0895FC01AF
:1002F000848DDF01A80FB11DA35ABF4F2C91848DAF
:1003000090E001968F739927848FA689B7892C93E3
:10031000A089B1898C9180648C93938D848D98137E
:1003200006C00288F389E02D80818F7D8083089547
:10033000EF92FF920F931F93CF93DF93EC0181E035
:10034000888F9B8D8C8D981305C0E889F9898081F1
:1003500085FD24C0F62E0B8D10E00F5F1F4F0F732D
:100360001127E02E8C8DE8120CC00FB607FCFACFD7
:10037000E889F989808185FFF5CFCE010E94770158
:10038000F1CF8B8DFE01E80FF11DE35AFF4FF08294
:100390000B8FEA89FB898081806207C0EE89FF8923
:1003A0006083E889F98980818064808381E090E0BE
:1003B000DF91CF911F910F91FF90EF900895CF9310
:1003C000DF93EC01888D8823C9F0EA89FB8980815D
:1003D00085FD05C0A889B9898C9186FD0FC00FB62F
:1003E00007FCF5CF808185FFF2CFA889B9898C9170
:1003F00085FFEDCFCE010E947701E7CFDF91CF914E
:10040000089580E090E0892B29F00E946D01811110
:100410000C940000089590E0FC01E457FE4F3491E5
:10042000FC01E254FE4F2491FC01E655FE4FE4919D
:10043000EE2309F43BC0332339F1333091F038F423
:100440003130A9F0323001F584B58F7D12C03730DC
:1004500091F03830A1F03430B9F4809180008F7D74
:1004600003C0809180008F77809380000DC084B599
:100470008F7784BD09C08091B0008F7703C08091D1
:10048000B0008F7D8093B000F0E0EE0FFF1FEE57BD
:10049000FE4FA591B4918FB7F894EC91611103C010
:1004A00020952E2301C02E2B2C938FBF08953FB78C
:1004B000F8948091B6019091B701A091B801B091E4
:1004C000B90126B5A89B05C02F3F19F00196A11DC3
:1004D000B11D3FBFBA2FA92F982F8827820F911DDA
:1004E000A11DB11DBC01CD0142E0660F771F881F21
:1004F000991F4A95D1F708958830910581F03CF411
:100500008230910551F08430910549F006C0803168
:10051000910529F08032910511F084E090E09093EC
:10052000070180930601089508950E944F101F92BD
:100530000F920FB60F9211242F933F934F935F9317
:100540006F937F938F939F93AF93BF93EF93FF939B
:100550008CEE91E00E947701FF91EF91BF91AF91F6
:100560009F918F917F916F915F914F913F912F91CB
:100570000F900FBE0F901F9018951F920F920FB6FD
:100580000F9211242F938F939F93EF93FF93E091FA
:10059000FC01F091FD018081E0910202F0910302E3
:1005A00082FD12C09081809105028F5F8F73209130
:1005B0000602821751F0E0910502F0E0E451FE4F8F
:1005C000958F8093050201C08081FF91EF919F91EB
:1005D0008F912F910F900FBE0F901F901895CF9372
:1005E000DF9390E0FC01E254FE4F2491FC01E655BC
:1005F000FE4F8491882361F190E0880F991FFC01E0
:10060000E858FE4FC591D491FC01EE57FE4FA591DD
:10061000B491611109C09FB7F89488812095822315
:100620008883EC912E230BC0623061F49FB7F8945D
:100630003881822F809583238883EC912E2B2C93F5
:100640009FBF06C08FB7F894E8812E2B28838FBFF9
:10065000DF91CF9108951F93CF93DF93182FEB0174
:1006600061E00E94EF02209711F460E004C0CF3FE8
:10067000D10539F461E0812FDF91CF911F910C9466
:100680000B02E12FF0E0E457FE4FE491E330F9F084
:1006900048F4E130B9F0E230A1F584B5806284BD60
:1006A000C8BD34C0E730E9F0E83019F1E43049F56D
:1006B00080918000806280938000D0938B00C093F3
:1006C0008A0024C084B5806884BDC7BD1FC08091E6
:1006D0008000806880938000D0938900C093880058
:1006E00015C08091B00080688093B000C093B300C3
:1006F0000DC08091B00080628093B000C093B400C0
:1007000005C0C038D1050CF0B5CFAFCFDF91CF9188
:100710001F9108958F929F92AF92BF92CF92DF92D6
:10072000EF92FF926B017C010E9457024B015C012A
:10073000C114D104E104F104F1F00E945702DC017C
:10074000CB0188199909AA09BB09883E9340A105E4
:10075000B10570F321E0C21AD108E108F10888EE72
:10076000880E83E0981EA11CB11CC114D104E104C1
:10077000F10419F7DDCFFF90EF90DF90CF90BF909D
:10078000AF909F908F9008952FB7F8946091B20129
:100790007091B3018091B4019091B5012FBF08957C
:1007A0001F920F920FB60F9211242F933F938F93A6
:1007B0009F93AF93BF938091B2019091B301A091A9
:1007C000B401B091B5013091B10123E0230F2D3771
:1007D00020F40196A11DB11D05C026E8230F029645
:1007E000A11DB11D2093B1018093B2019093B3017B
:1007F000A093B401B093B5018091B6019091B70177
:10080000A091B801B091B9010196A11DB11D8093CD
:10081000B6019093B701A093B801B093B901BF910D
:10082000AF919F918F913F912F910F900FBE0F909D
:100830001F9018951F920F920FB60F9211244F928E
:100840005F926F927F928F929F92AF92BF92EF9240
:10085000FF920F931F932F933F934F935F936F9349
:100860007F938F939F93AF93BF93CF93DF93EF9338
:10087000FF938091E101882309F449C18091B0017F
:100880008F5F8093B0018091B0016091C3010E949D
:10089000490E91113CC18091BE01082E000C990BAC
:1008A000EC0197FF04C0CC27DD27C81BD90B181615
:1008B00019063CF481E090E090938A0280938902CB
:1008C00006C0892B21F010928A021092890208E05A
:1008D00010E084E0E82EF12C209709F4D2C00E94A9
:1008E000570280909D0290909E02A0909F02B0902F
:1008F000A0022B013C01481859086A087B08809027
:100900008B0290908C02A0908D02B0908E024814C1
:1009100059046A047B0400F360939D0270939E0265
:1009200080939F029093A0022091890230918A02C5
:1009300080919102909192022130310589F40196C3
:10094000909392028093910220918F0230919002B5
:1009500082179307C1F4109292021092910213C071
:10096000892B41F480918F02909190029093920292
:1009700080939102809191029091920201979093BD
:1009800092028093910221972091930230919402D8
:1009900080919102909192022130310581F4B7014A
:1009A0000E94550E81309105B9F11CF4892BF1F0AC
:1009B00093CF82309105D9F1039769F08DCFB801BB
:1009C0000E94550E8830910508F086CFFC01EC5C42
:1009D000FF4F0C94690E6FEF70E0809195020E94BA
:1009E0002B0361E00AC060E070E002C06FEF70E0CE
:1009F000809195020E942B0360E0809199020E94F1
:100A00000B026FEF70E033C06FEF70E080919502E2
:100A10000E942B0360E025C06FEF70E002C060E031
:100A200070E0809195020E942B0360E007C06FEF99
:100A300070E0809195020E942B0361E08091990201
:100A40000E940B026FEF70E0809197020E942B03CF
:100A500061E012C06FEF70E0809195020E942B035D
:100A600061E0809199020E940B0260E070E0809149
:100A700097020E942B0360E080919B020E940B0270
:100A80002BCF1092B0014091BE018091BF01909197
:100A9000C001A091C101B091C201042E000C550B00
:100AA000660B770B841B950BA60BB70B8093BF01CE
:100AB0009093C001A093C101B093C2018091BE0187
:100AC0004091020150910301609104017091050170
:100AD000082E000C990BAA0BBB0B840F951FA61FA9
:100AE000B71F8093020190930301A0930401B09378
:100AF00005018091BF019091C001A091C101B09109
:100B0000C201892B8A2B8B2B11F41092E101FF91EA
:100B1000EF91DF91CF91BF91AF919F918F917F9195
:100B20006F915F914F913F912F911F910F91FF9086
:100B3000EF90BF90AF909F908F907F906F905F905D
:100B40004F900F900FBE0F901F901895DC01E0E0C2
:100B5000615038F08D91E827F0E0E858FF4FE491BC
:100B6000F7CF8E2F0895FC0190810180F281E02D56
:100B7000F8948181892B81832281892F8095282374
:100B80002283A7E0B0E01197F1F7218182238183CE
:100B9000A3E2B0E01197F1F780817894EFECF0E0F8
:100BA0003197F1F7982381E009F480E00895FC0182
:100BB00090810180F281E02D892F809560FF12C025
:100BC000F8942281822382838181892B8183A3E20D
:100BD000B0E01197F1F78281982B9283789487ED9A
:100BE00090E011C0F8942281822382838181892B35
:100BF0008183AFEFB0E01197F1F78281982B928358
:100C000078948FE090E00197F1F70895CF92DF920A
:100C1000EF92FF920F931F93CF93DF931F92CDB765
:100C2000DEB76C01E62E08E010E0FF24F39461E0EB
:100C30008F2D8E2109F460E0C60149830E94D705FB
:100C4000FF0C0150110949810115110581F741116E
:100C500015C0F894D6011196ED91FC9112979181EF
:100C60008C918095892381831196ED91FC91129747
:100C700092818C9180958923828378940F90DF9163
:100C8000CF911F910F91FF90EF90DF90CF9008953B
:100C9000CF92DF92EF92FF920F931F93CF93DF9348
:100CA0001F92CDB7DEB78C01F62E40E065E5798363
:100CB0000E940606CF2C7981D72E760188E0E80EB7
:100CC000F11CF60161916F0140E0C8010E94060627
:100CD000CE14DF04B1F70F90DF91CF911F910F91E8
:100CE000FF90EF90DF90CF900895FC0190810180FC
:100CF000F281E02DF8948181292F20958223818330
:100D000078948DE743E050E0815021F1DA011197AA
:100D1000F1F730813923C1F3F894828182238283F1
:100D20008181892B81837894ABE7B7E01197F1F744
:100D3000F894818128232183A3E1B1E01197F1F791
:100D40008081982381E009F080E07894E3E6F6E082
:100D50003197F1F70895AF92BF92CF92DF92EF9261
:100D6000FF920F931F93CF93DF938B01BC01809170
:100D7000A6029091A7020E94480640E06EEB809187
:100D8000A6029091A7020E940606E801680189E088
:100D9000C80ED11CA090A602B090A70288E0E82E51
:100DA000F12C01E010E0C5010E94B3058111102B68
:100DB000000F81E0E81AF108B1F71993CC15DD05B1
:100DC00049F78091A6029091A7020E94750691E0D2
:100DD000813009F090E0892FDF91CF911F910F9121
:100DE000FF90EF90DF90CF90BF90AF900895AF92BB
:100DF000BF92CF92DF92EF92FF920F931F93CF9308
:100E0000DF931F92CDB7DEB75C01D62EE72EFC0133
:100E10008585811105C0C5010E947506811106C036
:100E2000F50113861586148680E065C040E060EF0A
:100E3000C5010E94060601E0F12CC12C11E0C5019C
:100E40000E94B305682FC50169830E94B3056981BB
:100E5000613019F48130B9F433C04F2D50E068137C
:100E60001BC0F5018385181730F4E40FF51F83814B
:100E7000802349F402C0181731F060E0193058F4AB
:100E8000F501148708C0F501EF0DF11D8381802B5A
:100E9000838361E009C0C12EF501E40FF51F938142
:100EA000802F809589238383C5010E94D7051F5F0A
:100EB000000F11F4F39401E0F7E0FF1508F0BFCF45
:100EC000113408F4ADCFF501C386C11002C081E032
:100ED0008587F5018381882309F4A2CFD501139674
:100EE000ED2DFE2D9501255F3F4F8D918193A2172A
:100EF000B307D9F781E00F90DF91CF911F910F9148
:100F0000FF90EF90DF90CF90BF90AF9008950F9338
:100F10001F93CF93DF93CDB7DEB729970FB6F89421
:100F2000DEBF0FBECDBFFC012081203161F18C01FD
:100F30008091A6029091A7020E947506882309F16C
:100F4000BE016F5F7F4FC8010E94AB068823C9F0C6
:100F500068E0CE0101960E94A6059985891311C00B
:100F60008D818F3361F020F48F3159F489E00CC00A
:100F70008F3519F08F3739F004C08BE005C08AE057
:100F800003C080E001C08CE029960FB6F894DEBF64
:100F90000FBECDBFDF91CF911F910F9108950097A4
:100FA00069F0FC0101900020E9F73197AF01481B7F
:100FB000590BBC018CEE91E00C94140180E090E0A0
:100FC00008958F929F92AF92BF920F931F93CF93EA
:100FD000DF93CDB7DEB7A1970FB6F894DEBF0FBE93
:100FE000CDBF19A2423008F44AE08E010F5D1F4FB9
:100FF000842E912CA12CB12CA50194010E944414A3
:10100000E62FB901CA0101501109EA3014F4E05D7C
:1010100001C0E95CD801EC93232B242B252B61F72D
:10102000C8010E94CF07A1960FB6F894DEBF0FBE8D
:10103000CDBFDF91CF911F910F91BF90AF909F9047
:101040008F9008958F929F92AF92BF92CF92DF922E
:10105000EF92FF92CF93DF938091A6029091A70227
:101060000E94750640E06CEC8091A6029091A70268
:101070000E9406064091A10264E48091A60290912C
:10108000A7020E9406068091A302882309F445C0A6
:10109000E091A202E950E33040F4F0E0EE0FFF1FD0
:1010A000E85FFE4FC081D18102C0CEEED2E08091D8
:1010B000A402882311F18091A10281111EC00E9417
:1010C000C4034B015C016E01DD0FEE08FF08809147
:1010D000A6029091A7020E94B3058130F1F00E9410
:1010E000C403DC01CB018C199D09AE09BF09881529
:1010F0009905AA05BB0558F310C0BE01DD0F880B8A
:10110000990BDF91CF91FF90EF90DF90CF90BF9040
:10111000AF909F908F900C948A03DF91CF91FF90B6
:10112000EF90DF90CF90BF90AF909F908F900895F9
:10113000CF93DF93CDB7DEB761970FB6F894DEBFDC
:101140000FBECDBFE091A602F091A70213861586CF
:101150001486DF011B96CF0103961E92A817B907CC
:10116000E1F7BE01665F7F4FCF010E94F70688233B
:1011700041F067E0CE010A960E94A6059989891779
:1011800029F060E070E08EEF92EC59C08091A602E9
:101190009091A7020E9475068823F1F1BE016F5F4E
:1011A0007F4FCE010A960E94AB068823A9F168E022
:1011B000CE0101960E94A605998589132DC06981EB
:1011C00048E0649FB00111248A81282F30E0322F3B
:1011D0002227330F330F330F262B372B8A8580318D
:1011E000C9F4688570E08F81AB01481B5109CA01C1
:1011F0009695982F8827979587950E94550E605150
:101200007109207F53E0220F331F5A95E1F7620FD7
:10121000731F04C0B90102C060E874EE613854EE77
:1012200075070CF4AECF072E000C880B990B0E94AB
:101230002D0F20E030E040E05CE30E94E20F619679
:101240000FB6F894DEBF0FBECDBFDF91CF910895EA
:10125000CF93DF930E94CF07EC018FE491E00E94CF
:10126000CF078C0F9D1FDF91CF9108950C94CF076E
:10127000CF92DF92EF92FF92CF93DF936B017C01CD
:10128000E091EC01F091ED010190F081E02D6DE233
:101290008CEE91E00995EC0166277727CB016C195C
:1012A0007D098E099F094AE00E94E1078C0F9D1F6E
:1012B000DF91CF91FF90EF90DF90CF900895CF9383
:1012C000DF93CDB7DEB728970FB6F894DEBF0FBE19
:1012D000CDBF789484B5826084BD84B5816084BDBF
:1012E00085B5826085BD85B5816085BD80916E00C4
:1012F000816080936E0010928100809181008260F5
:101300008093810080918100816080938100809131
:1013100080008160809380008091B1008460809320
:10132000B1008091B00081608093B00080917A001C
:10133000846080937A0080917A00826080937A0042
:1013400080917A00816080937A0080917A00806831
:1013500080937A001092C100E091FC01F091FD01B0
:1013600082E08083E091F801F091F9011082E09130
:10137000FA01F091FB018FEC808310920402E0915E
:101380000002F091010286E08083E091FE01F0917D
:10139000FF01808180618083E091FE01F091FF0177
:1013A000808188608083E091FE01F091FF0180815F
:1013B00080688083E091FE01F091FF0180818F7D44
:1013C00080838EE191E00E9428098FE291E00E94E3
:1013D0002809E091A602F091A702138615861486CB
:1013E000DF011B9633961E92AE17BF07E1F71092EE
:1013F000A5028E010F5F1F4F6E0129E0C20ED11CA6
:10140000BB24B394B8018091A6029091A7020E94D8
:10141000F706882309F456C07801D7016D917D0144
:1014200070E080E090E04AE00E94E107EC14FD04E7
:10143000A1F78FE491E00E94CF0767E0C8010E9406
:10144000A60598858913DECF8091A102811125C060
:101450008091A6029091A7020E947506B801809122
:10146000A6029091A7020E94480640E064EB80919A
:10147000A6029091A7020E9406068091A602909172
:10148000A7020E94B305F82E8091A6029091A702B0
:101490000E947506FF2009F4B5C0F090A202C801B1
:1014A0000E9487078F1518F48091A20203C0C8011B
:1014B0000E9487078093A2028091A5028F5F80938C
:1014C000A502A0CF88E0E6EDF1E0DF011D928A954C
:1014D000E9F780910001909101010E947C0268EE81
:1014E00073E080E090E00E948A030E9422080E943C
:1014F00098086093E4017093E5018093E60190936E
:10150000E7010E94C4036093E8017093E9018093AE
:10151000EA019093EB018FEA87BD80916E008260B3
:1015200080936E00CC24C394D12C98E0392E24E013
:10153000822E912C33E9A32E31E0B32E41E7E42E25
:1015400041E0F42E0E94C4034090E8015090E9016C
:101550006090EA017090EB01DC01CB0184199509E0
:10156000A609B70981319742A105B105B0F00E94E3
:10157000C4036093E8017093E9018093EA019093BA
:10158000EB010E9422080E9498086093E401709386
:10159000E5018093E6019093E7018091E20190914B
:1015A000E301892B21F18091E101811120C010928A
:1015B000E3011092E20160E070E0809195020E94E8
:1015C0002B0360E070E0809197020E942B030FC014
:1015D00021153105D1F48CEE91E00E943F018093FA
:1015E000E001833209F48BC28A3309F06EC28CEEBB
:1015F00091E00E9461012091D4013091D501892BA5
:1016000021F0E6CFB092A10248CF232B09F45AC2B1
:10161000ACECB1E0E32D1D92EA95E9F7A4ECB1E062
:10162000E32D1D92EA95E9F7E6EDF1E00190002047
:10163000E9F73197CF01865D91403C0192E0691650
:101640007104ACF042E050E066ED71E08CEC91E0AA
:101650000E946710A2E06A16710449F0A30142508B
:10166000510968ED71E084EC91E00E946710E6EDAD
:10167000F1E0232D11922A95E9F71092D5011092ED
:10168000D4011092DF011092DE0162E571E08CEC72
:1016900091E00E945410892B69F48091E2019091AD
:1016A000E301892B19F085E591E002C089E591E01D
:1016B0000E9436096DE571E08CEC91E00E945410B7
:1016C000892B09F049C0D092E301C092E201F8945D
:1016D00081E08093E101909106019093C3014091D4
:1016E000BF015091C0016091C1017091C20177FDAD
:1016F0008FEF8093BE01789480E691E00E942809E4
:101700006091E10170E080E090E04AE00E94E10732
:101710008FE491E00E94CF076091C30170E080E008
:1017200090E04AE00E94E1078FE491E00E94CF0739
:101730006091BF017091C0018091C1019091C2017F
:1017400097FF03C00E94380903C04AE00E94E107E6
:101750008FE491E00E94CF076BE671E08CEC91E0A2
:101760000E945410892BE1F41092E3011092E201DF
:10177000F8941092E1011092BF011092C0011092F2
:10178000C1011092C201789460E070E080919502EE
:101790000E942B0360E070E0809197020E942B036F
:1017A0006EE671E08CEC91E00E945410892B31F5CB
:1017B0008091020190910301A0910401B091050173
:1017C0008093BA019093BB01A093BC01B093BD017B
:1017D000BF93AF939F938F93FF92EF921F930F93BB
:1017E0000E947610C8010E9436098BE591E00E94A4
:1017F00036090FB6F894DEBF0FBECDBF66E771E0C5
:101800008CEC91E00E945410892B31F540E150E0BE
:1018100060E070E084EC91E00E9417136093BA01DD
:101820007093BB018093BC019093BD014090020175
:10183000509003016090040170900501DC01CB0120
:1018400084199509A609B7098093BF019093C00137
:10185000A093C101B093C20169E771E08CEC91E003
:101860000E945410892BC1F440E150E060E070E028
:1018700084EC91E00E9417136093BA017093BB014E
:101880008093BC019093BD016093020170930301AA
:1018900080930401909305016CE771E08CEC91E07A
:1018A0000E945410892B79F440E150E060E070E030
:1018B00084EC91E00E941713709301016093000182
:1018C000CB010E947C026FE771E08CEC91E00E94FA
:1018D0005410892B09F03EC04090E4015090E5017E
:1018E0006090E6017090E70120E030E048E452ECBF
:1018F000C301B2010E94F00E87FD0AC020E030E073
:1019000048E452E4C301B2010E94DD0F18162CF422
:1019100082E891E00E9436091DC0A3019201C30133
:10192000B2010E94840E0E94F50E7F936F93FF9286
:10193000EF921F930F930E947610C8010E94360900
:101940008BE591E00E9436090F900F900F900F9059
:101950000F900F9066E871E08CEC91E00E945410BB
:10196000892B21F489E891E00E9436096DE871E045
:101970008CEC91E00E945410892B91F5409102016A
:101980005091030160910401709105018091BF01A4
:101990009091C001A091C101B091C201840F951F27
:1019A000A61FB71F8093BA019093BB01A093BC01FF
:1019B000B093BD01BF93AF939F938F93FF92EF922C
:1019C0001F930F930E947610C8010E9436098BE581
:1019D00091E00E9436090FB6F894DEBF0FBECDBF6E
:1019E00060E971E08CEC91E00E945410892BC9F4FD
:1019F000809101018F93809100018F93BF92AF92EC
:101A00001F930F930E947610C8010E9436098BE540
:101A100091E00E9436090F900F900F900F900F9059
:101A20000F9068E971E08CEC91E00E945410892BD2
:101A300021F489E591E00E9436096BE971E08CECB4
:101A400091E00E945410892B69F480919302909147
:101A50009402019719F489E591E002C08EE991E0C2
:101A60000E94360962EA71E08CEC91E00E94541009
:101A7000892B41F4D0929402C092930290929002EA
:101A800080928F0265EA71E08CEC91E00E94541024
:101A9000892B61F4E2E0F0E0F0939402E09393028A
:101AA00088E090E09093900280938F0268EA71E062
:101AB0008CEC91E00E945410892B21F48BEA91E088
:101AC0000E9436090E9401023DCD2091DE01309135
:101AD000DF01A9014F5F5F4F5093DF014093DE01AB
:101AE000F901EA52FE4F8083483051050CF47FCD56
:101AF00087E090E09093DF018093DE0178CDD09273
:101B0000D501C092D40173CD1092EF011092EE0175
:101B100088EE93E0A0E0B0E08093F0019093F101B3
:101B2000A093F201B093F30182E191E09093ED0173
:101B30008093EC0185EC90E09093F9018093F8019B
:101B400084EC90E09093FB018093FA0180EC90E0AC
:101B50009093FD018093FC0181EC90E09093FF0154
:101B60008093FE0182EC90E090930102809300024A
:101B700086EC90E09093030280930202109205029B
:101B800010920602109207021092080260E08FE0A5
:101B90000E94EF02EDECF1E0E491E093B402E9EB96
:101BA000F1E0E491F0E0EE0FFF1FE056FE4F85916B
:101BB00094919093B6028093B5021092BF02109256
:101BC000C1021092C002EFEBF2E0129282E0E73B1A
:101BD000F807D9F784E992E09093B3028093B202B8
:101BE00084EB92E09093A7028093A6021092A50244
:101BF0001092A10289E08093A20281E08093A30267
:101C00008093A402109292021092910210928A0282
:101C10001092890210929D0210929E0210929F02D1
:101C20001092A00280E19EE09093900280938F0238
:101C300083E090E090939602809395028BE090E091
:101C400090939802809397028CE090E090939A0290
:101C5000809399028DE090E090939C0280939B0288
:101C600081E090E0909394028093930261E083E09E
:101C70000E94EF0261E0809197020E94EF0261E012
:101C8000809199020E94EF0261E080919B020C9486
:101C9000EF02991B79E004C0991F961708F0961B74
:101CA000881F7A95C9F78095089597FB072E16F43B
:101CB000009407D077FD09D00E946F0E07FC05D075
:101CC0003EF4909581959F4F0895709561957F4F53
:101CD0000895EE0FFF1F0590F491E02D0994AA1BC3
:101CE000BB1B51E107C0AA1FBB1FA617B70710F007
:101CF000A61BB70B881F991F5A95A9F78095909539
:101D0000BC01CD0108955058BB27AA270E949B0E05
:101D10000C94A30F0E94950F38F00E949C0F20F0A6
:101D200039F49F3F19F426F40C94920F0EF4E095C9
:101D3000E7FB0C948C0FE92F0E94B40F58F3BA17ED
:101D4000620773078407950720F079F4A6F50C94D1
:101D5000D60F0EF4E0950B2EBA2FA02D0B01B90172
:101D600090010C01CA01A0011124FF27591B99F011
:101D7000593F50F4503E68F11A16F040A22F232F1D
:101D8000342F4427585FF3CF469537952795A7956D
:101D9000F0405395C9F77EF41F16BA0B620B730B14
:101DA000840BBAF09150A1F0FF0FBB1F661F771F85
:101DB000881FC2F70EC0BA0F621F731F841F48F43A
:101DC000879577956795B795F7959E3F08F0B0CFC3
:101DD0009395880F08F09927EE0F979587950895AA
:101DE0000E94680F08F481E008950E94FC0E689438
:101DF000B1110C94D70F08950E94BC0F88F09F5723
:101E000098F0B92F9927B751B0F0E1F0660F771F1E
:101E1000881F991F1AF0BA95C9F714C0B13091F014
:101E20000E94D60FB1E008950C94D60F672F782F3B
:101E30008827B85F39F0B93FCCF3869577956795D9
:101E4000B395D9F73EF490958095709561957F4F45
:101E50008F4F9F4F0895E89409C097FB3EF49095EB
:101E60008095709561957F4F8F4F9F4F9923A9F073
:101E7000F92F96E9BB279395F69587957795679502
:101E8000B795F111F8CFFAF4BB0F11F460FF1BC046
:101E90006F5F7F4F8F4F9F4F16C0882311F096E9D9
:101EA00011C0772321F09EE8872F762F05C0662387
:101EB00071F096E8862F70E060E02AF09A95660F40
:101EC000771F881FDAF7880F9695879597F90895F9
:101ED000990F0008550FAA0BE0E8FEEF161617063B
:101EE000E807F907C0F012161306E407F50798F0A3
:101EF000621B730B840B950B39F40A2661F0232BBC
:101F0000242B252B21F408950A2609F4A140A69537
:101F10008FEF811D811D089597F99F6780E870E01C
:101F200060E008959FEF80EC089500240A9416164F
:101F3000170618060906089500240A9412161306B7
:101F4000140605060895092E0394000C11F4882345
:101F500052F0BB0F40F4BF2B11F460FF04C06F5F61
:101F60007F4F8F4F9F4F089557FD9058440F551F37
:101F700059F05F3F71F04795880F97FB991F61F00B
:101F80009F3F79F087950895121613061406551F82
:101F9000F2CF4695F1DF08C0161617061806991FEE
:101FA000F1CF86957105610508940895E894BB27E3
:101FB00066277727CB0197F908950E94680F08F4E8
:101FC0008FEF08950E94F50F0C94A30F0E94950FB8
:101FD00038F00E949C0F20F0952311F00C948C0F88
:101FE0000C94920F11240C94D70F0E94B40F70F32D
:101FF000959FC1F3950F50E0551F629FF001729FAE
:10200000BB27F00DB11D639FAA27F00DB11DAA1FBC
:10201000649F6627B00DA11D661F829F2227B00D09
:10202000A11D621F739FB00DA11D621F839FA00D94
:10203000611D221F749F3327A00D611D231F849FE4
:10204000600D211D822F762F6A2F11249F5750403B
:102050009AF0F1F088234AF0EE0FFF1FBB1F661FB6
:10206000771F881F91505040A9F79E3F510580F07F
:102070000C948C0F0C94D70F5F3FE4F3983ED4F38D
:10208000869577956795B795F795E7959F5FC1F723
:10209000FE2B880F911D9695879597F9089581E0FD
:1020A00090E0F8940C94B714FB01DC018D9181341D
:1020B0001CF08B350CF4805E619161341CF06B3543
:1020C0000CF4605E861B611189F3990B0895FB0186
:1020D000DC014150504048F001900D920020C9F7BA
:1020E00001C01D9241505040E0F70895AEE0B0E0CD
:1020F000ECE7F0E10C947F140D891E8986E08C8357
:102100001A8309838FEF9FE79E838D83AE01475E1D
:102110005F4F6F89788DCE0101960E9499102F81B3
:102120003885F801E20FF31F10822E96E4E00C943C
:102130009B14ACE0B0E0EFE9F0E10C9471147C0189
:102140006B018A01FC0117821682838181FFBDC168
:10215000CE0101964C01F7019381F60193FD859123
:1021600093FF81916F01882309F4ABC1853239F463
:1021700093FD859193FF81916F01853229F4B70119
:1021800090E00E948112E7CF512C312C20E02032C8
:10219000A0F48B3269F030F4803259F0833269F464
:1021A00020612CC08D3239F0803339F4216026C093
:1021B0002260246023C0286021C027FD27C030EDA5
:1021C000380F3A3078F426FF06C0FAE05F9E300DF3
:1021D0001124532E13C08AE0389E300D1124332E63
:1021E00020620CC08E3221F426FD6BC1206406C033
:1021F0008C3611F4206802C0883641F4F60193FD54
:10220000859193FF81916F018111C1CF982F9F7D9F
:102210009554933028F40C5F1F4FFFE3F9830DC0F2
:10222000833631F0833771F0833509F05BC022C00B
:10223000F801808189830E5F1F4F44244394512C01
:10224000540115C03801F2E06F0E711CF801A08036
:10225000B18026FF03C0652D70E002C06FEF7FEFF5
:10226000C5012C870E9476122C0183012C852F77C3
:10227000222E17C03801F2E06F0E711CF801A08009
:10228000B18026FF03C0652D70E002C06FEF7FEFC5
:10229000C5012C870E946B122C012C852068222EF0
:1022A000830123FC1BC0832D90E048165906B0F42F
:1022B000B70180E290E00E9481123A94F4CFF501D8
:1022C00027FC859127FE81915F01B70190E00E9474
:1022D000811231103A94F1E04F1A5108411451041F
:1022E00071F7E5C0843611F0893639F5F80127FF1A
:1022F00007C060817181828193810C5F1F4F08C08C
:1023000060817181072E000C880B990B0E5F1F4FA7
:102310002F76722E97FF09C09095809570956195E4
:102320007F4F8F4F9F4F2068722E2AE030E0A4012C
:102330000E94B912A82EA81844C0853729F42F7E10
:10234000B22E2AE030E025C0F22FF97FBF2E8F3663
:10235000C1F018F4883579F0B4C0803719F08837A7
:1023600021F0AFC02F2F2061B22EB4FE0DC08B2DF7
:102370008460B82E09C024FF0AC09F2F9660B92E32
:1023800006C028E030E005C020E130E002C020E1D6
:1023900032E0F801B7FE07C06081718182819381CC
:1023A0000C5F1F4F06C06081718180E090E00E5F7E
:1023B0001F4FA4010E94B912A82EA818FB2DFF7769
:1023C0007F2E76FE0BC0372D3E7FA51450F474FE91
:1023D0000AC072FC08C0372D3E7E05C0BA2C372DCE
:1023E00003C0BA2C01C0B52C34FF0DC0FE01EA0DAC
:1023F000F11D8081803311F4397E09C032FF06C09F
:10240000B394B39404C0832F867809F0B39433FD5A
:1024100013C030FF06C05A2CB31418F4530C5B18C9
:10242000B32CB31468F4B70180E290E03C870E94BB
:102430008112B3943C85F5CFB31410F43B1801C05E
:10244000312C34FF12C0B70180E390E03C870E943A
:1024500081123C8532FF17C031FD03C088E790E050
:1024600002C088E590E0B7010CC0832F867859F050
:1024700031FF02C08BE201C080E237FD8DE2B7017F
:1024800090E00E948112A51438F4B70180E390E037
:102490000E9481125A94F7CFAA94F401EA0DF11D1B
:1024A0008081B70190E00E948112A110F5CF332006
:1024B00009F451CEB70180E290E00E9481123A9473
:1024C000F6CFF7018681978102C08FEF9FEF2C96A0
:1024D000E2E10C948D14FC010590615070400110F4
:1024E000D8F7809590958E0F9F1F0895FC0161503D
:1024F000704001900110D8F7809590958E0F9F1F26
:1025000008950F931F93CF93DF93FB01238121FD48
:1025100003C08FEF9FEF28C022FF16C0468157816E
:10252000248135814217530744F4A081B1819D0174
:102530002F5F3F4F318320838C93268137812F5F1C
:102540003F4F3783268310C0EB01092F182F0084DB
:10255000F185E02D0995892BE1F68E819F81019609
:102560009F838E83812F902FDF91CF911F910F91A9
:102570000895FA01AA27283051F1203181F1E89419
:102580006F936E7F6E5F7F4F8F4F9F4FAF4FB1E066
:102590003ED0B4E03CD0670F781F891F9A1FA11D61
:1025A000680F791F8A1F911DA11D6A0F711D811D62
:1025B000911DA11D20D009F468943F912AE0269F27
:1025C00011243019305D3193DEF6CF010895462F86
:1025D0004770405D4193B3E00FD0C9F7F6CF462F67
:1025E0004F70405D4A3318F0495D31FD40524193D0
:1025F00002D0A9F7EACFB4E0A6959795879577958D
:102600006795BA95C9F700976105710508959B0113
:10261000AC010A2E06945795479537952795BA959C
:10262000C9F7620F731F841F951FA01D0895A0E0B6
:10263000B0E0EDE1F3E10C9471145C016B017A01FF
:102640006115710519F0FB0191838083E114F10498
:1026500029F0C7010297839708F0F1C0E5012196A0
:10266000F5011081812F90E00E942814892B11F030
:102670005E01F4CF1D3229F42196F501118101E0AC
:1026800007C01B3221F4E5012296F501118100E01B
:10269000E114F10459F1F0E1EF16F10461F41033A3
:1026A000E1F488818F7D883569F519812296026071
:1026B00070E1E72EF12C88E0E816F10439F12CF4F2
:1026C000F2E0EF16F104C9F12AC08AE0E816F1043D
:1026D00079F0E0E1EE16F10411F550E1E52EF12C70
:1026E000812C912CA12C68E0B62E2CC01033C9F29D
:1026F0003AE0E32EF12C4CEC842E982CA82C4CE0E4
:10270000B42E20C010E3E114F104A9F698E0E92EFC
:10271000F12C812C912CA12C20E1B22E13C060E071
:1027200070E080E090E897010F2C000C440B550BF3
:102730000E94441449015A0105C0812C912CA12CFE
:1027400080E4B82E60E020E030E0A90127010F2CE2
:10275000000C660877081E01E0EDE10FEA3060F03A
:102760008FEB810F8A3110F4E9EC05C08FE9810FFE
:102770008A3128F5E9EAE10F8E2F90E08E159F054A
:10278000F4F467FD18C082169306A406B50690F00F
:10279000C301B2010E9434149B01AC012E0F311D04
:1027A000411D511D213031054105F0E85F0710F44E
:1027B00061E001C06FEF2196F1011081CCCF802F35
:1027C0008170C114D10471F0662329F02197F601BC
:1027D000D183C08307C001FF19C02297F601D183BE
:1027E000C08314C067FF12C0811105C02FEF3FEFF7
:1027F0004FEF5FE704C020E030E040E050E882E2C5
:1028000090E09093C3028093C20216C0882341F0E7
:1028100050954095309521953F4F4F4F5F4F0CC0DD
:1028200057FF0AC082E290E09093C3028093C202F5
:102830002FEF3FEF4FEF5FE7B901CA0104C060E03F
:1028400070E080E090E0CDB7DEB7E2E10C948D144B
:1028500091110C943114803219F089508550C8F7C9
:102860000895992788270895DB018F939F930E94ED
:102870006614BF91AF91A29F800D911DA39F900DF3
:10288000B29F900D11240895A1E21A2EAA1BBB1B22
:10289000FD010DC0AA1FBB1FEE1FFF1FA217B3072C
:1028A000E407F50720F0A21BB30BE40BF50B661F42
:1028B000771F881F991F1A9469F760957095809506
:1028C00090959B01AC01BD01CF0108950E94A81411
:1028D000A59F900DB49F900DA49F800D911D112474
:1028E00008952F923F924F925F926F927F928F92B4
:1028F0009F92AF92BF92CF92DF92EF92FF920F938F
:102900001F93CF93DF93CDB7DEB7CA1BDB0B0FB698
:10291000F894DEBF0FBECDBF09942A883988488855
:102920005F846E847D848C849B84AA84B984C884EB
:10293000DF80EE80FD800C811B81AA81B981CE0FE2
:10294000D11D0FB6F894DEBF0FBECDBFED010895C7
:10295000A29FB001B39FC001A39F700D811D1124E0
:10296000911DB29F700D811D1124911D0895F89441
:02297000FFCF97
:102972002000401F000008005E00BC00770100003C
:1029820000009801140161013F015301DF01506E03
:1029920050466F637573205632612D6D7366004C1D
:1029A2006F6F6B696E6720666F722074656D7065FC
:1029B2007261747572652073656E736F7273000D48
:1029C2000A004749003031230030302300464700D7
:1029D2004D6F7665207374617274004651004750E2
:1029E200002530345800534E0053500053440047E2
:1029F20054004336230047430030322300474E0041
:102A020047440025303258004748004742004646B6
:102A1200230053460053480047560031302300003C
:00000001FF
