:100000000C94EA000C9412010C9412010C9412014D
:100010000C9412010C9412010C9412010C94120114
:100020000C9412010C9412010C9412010C94120104
:100030000C9412010C9412010C9412010C941201F4
:100040000C94D2030C9412010C944E020C942802CE
:100050000C9412010C9412010C9412010C941201D4
:100060000C9412010C9412015A066206650673067E
:100070007B067E0686069906005EBCE2613FDD8354
:10008000C29C7E20A3FD1F419DC3217FFCA2401E78
:100090005F01E3BD3E6082DC237D9FC1421CFEA068
:1000A000E1BF5D0380DE3C62BEE0025CDF81633D58
:1000B0007C22C09E1D43A1FF4618FAA427799BC548
:1000C00084DA3866E5BB5907DB856739BAE4065838
:1000D0001947A5FB7826C49A653BD987045AB8E628
:1000E000A7F91B45C6987A24F8A6441A99C7257B18
:1000F0003A6486D85B05E7B98CD2306EEDB3510F08
:100100004E10F2AC2F7193CD114FADF3702ECC92F7
:10011000D38D6F31B2EC0E50AFF1134DCE90722CE7
:100120006D33D18F0C52B0EE326C8ED0530DEFB1D7
:10013000F0AE4C1291CF2D73CA947628ABF51749C7
:100140000856B4EA6937D58B5709EBB536688AD4B7
:1001500095CB2977F4AA4816E9B7550B88D6346AA7
:100160002B7597C94A14F6A8742AC896154BA9F797
:10017000B6E80A54D7896B35000000002400270038
:100180002A0000000000250028002B0000000008C5
:10019000000201000003040700000000000000004E
:1001A00000000000230026002900040404040404C5
:1001B0000404020202020202030303030303010216
:1001C00004081020408001020408102001020408E5
:1001D0001020E00C11241FBECFEFD8E0DEBFCDBF52
:1001E00011E0A0E0B1E0E2E1F8E202C005900D927A
:1001F000A43AB107D9F722E0A4EAB1E001C01D9208
:10020000A43BB207E1F710E0CAEED0E004C02197AA
:10021000FE010E94B90DC93ED107C9F70E946B08C3
:100220000C9407140C940000CF92DF92EF92FF928F
:100230000F931F93CF93DF936C017A018B01C0E082
:10024000D0E0CE15DF0589F0D8016D918D01D60182
:10025000ED91FC910190F081E02DC6010995892B6B
:1002600011F47E0102C02196ECCFC701DF91CF913E
:100270001F910F91FF90EF90DF90CF900895FC01B8
:10028000918D828D981761F0828DDF01A80FB11DCD
:100290005D968C91928D9F5F9F73928F90E00895F1
:1002A0008FEF9FEF0895FC01918D828D981731F0AB
:1002B000828DE80FF11D858D90E008958FEF9FEFFF
:1002C0000895FC01918D228D892F90E0805C9F4FD5
:1002D000821B91098F73992708958CED91E00E94FC
:1002E000610121E0892B09F420E0822F0895FC01AF
:1002F000848DDF01A80FB11DA35ABF4F2C91848DAF
:1003000090E001968F739927848FA689B7892C93E3
:10031000A089B1898C9180648C93938D848D98137E
:1003200006C00288F389E02D80818F7D8083089547
:10033000EF92FF920F931F93CF93DF93EC0181E035
:10034000888F9B8D8C8D981305C0E889F9898081F1
:1003500085FD24C0F62E0B8D10E00F5F1F4F0F732D
:100360001127E02E8C8DE8120CC00FB607FCFACFD7
:10037000E889F989808185FFF5CFCE010E94770158
:10038000F1CF8B8DFE01E80FF11DE35AFF4FF08294
:100390000B8FEA89FB898081806207C0EE89FF8923
:1003A0006083E889F98980818064808381E090E0BE
:1003B000DF91CF911F910F91FF90EF900895CF9310
:1003C000DF93EC01888D8823C9F0EA89FB8980815D
:1003D00085FD05C0A889B9898C9186FD0FC00FB62F
:1003E00007FCF5CF808185FFF2CFA889B9898C9170
:1003F00085FFEDCFCE010E947701E7CFDF91CF914E
:10040000089580E090E0892B29F00E946D01811110
:100410000C94000008958830910581F03CF48230FE
:10042000910551F08430910549F006C08031910565
:1004300029F08032910511F084E090E0909303015F
:1004400080930201089508950C94E3070E949F0F82
:100450001F920F920FB60F9211242F933F934F9339
:100460005F936F937F938F939F93AF93BF93EF931C
:10047000FF938CED91E00E947701FF91EF91BF9186
:10048000AF919F918F917F916F915F914F913F912C
:100490002F910F900FBE0F901F9018951F920F92E3
:1004A0000FB60F9211242F938F939F93EF93FF9387
:1004B000E091EC01F091ED018081E091F201F09189
:1004C000F30182FD12C090818091F5018F5F8F73DF
:1004D0002091F601821751F0E091F501F0E0E4522D
:1004E000FE4F958F8093F50101C08081FF91EF91C0
:1004F0009F918F912F910F900FBE0F901F90189585
:1005000090E0FC01E457FE4F3491FC01E254FE4FB1
:100510002491FC01E655FE4FE491EE2309F43BC023
:10052000332339F1333091F038F43130A9F03230DF
:1005300001F584B58F7D12C0373091F03830A1F0CD
:100540003430B9F4809180008F7D03C080918000A9
:100550008F77809380000DC084B58F7784BD09C0EC
:100560008091B0008F7703C08091B0008F7D809321
:10057000B000F0E0EE0FFF1FEE57FE4FA591B491D3
:100580008FB7F894EC91611103C020952E2301C020
:100590002E2B2C938FBF0895CF93DF9390E0FC0117
:1005A000E254FE4F2491FC01E655FE4F84918823CE
:1005B00061F190E0880F991FFC01E858FE4FC5914A
:1005C000D491FC01EE57FE4FA591B491611109C081
:1005D0009FB7F8948881209582238883EC912E23FD
:1005E0000BC0623061F49FB7F8943881822F8095F8
:1005F00083238883EC912E2B2C939FBF06C08FB74B
:10060000F894E8812E2B28838FBFDF91CF91089536
:100610001F93CF93DF93182FEB0161E00E94CC0270
:10062000209711F460E004C0CF3FD10539F461E0B8
:10063000812FDF91CF911F910C948002E12FF0E088
:10064000E457FE4FE491E330F9F048F4E130B9F0BB
:10065000E230A1F584B5806284BDC8BD34C0E73006
:10066000E9F0E83019F1E43049F5809180008062CA
:1006700080938000D0938B00C0938A0024C084B5FF
:10068000806884BDC7BD1FC0809180008068809352
:100690008000D0938900C093880015C08091B0007D
:1006A00080688093B000C093B3000DC08091B0000B
:1006B00080628093B000C093B40005C0C038D105FB
:1006C0000CF0B5CFAFCFDF91CF911F9108953FB719
:1006D000F8948091A9019091AA01A091AB01B091E9
:1006E000AC0126B5A89B05C02F3F19F00196A11DAE
:1006F000B11D3FBFBA2FA92F982F8827820F911DB8
:10070000A11DB11DBC01CD0142E0660F771F881FFE
:10071000991F4A95D1F708958F929F92AF92BF92F9
:10072000CF92DF92EF92FF926B017C010E946703F0
:100730004B015C01C114D104E104F104F1F00E9409
:100740006703DC01CB0188199909AA09BB09883E16
:100750009340A105B10570F321E0C21AD108E10868
:10076000F10888EE880E83E0981EA11CB11CC1140C
:10077000D104E104F10419F7DDCFFF90EF90DF9091
:10078000CF90BF90AF909F908F9008952FB7F8941F
:100790006091A5017091A6018091A7019091A80197
:1007A0002FBF08951F920F920FB60F9211242F930F
:1007B0003F938F939F93AF93BF938091A5019091A7
:1007C000A601A091A701B091A8013091A40123E056
:1007D000230F2D3720F40196A11DB11D05C026E879
:1007E000230F0296A11DB11D2093A4018093A501A2
:1007F0009093A601A093A701B093A8018091A901AD
:100800009091AA01A091AB01B091AC010196A11DFC
:10081000B11D8093A9019093AA01A093AB01B0935D
:10082000AC01BF91AF919F918F913F912F910F900C
:100830000FBE0F901F901895DC01E0E0615038F07A
:100840008D91E827F0E0E858FF4FE491F7CF8E2F25
:100850000895FC0190810180F281E02DF89481815E
:10086000892B81832281892F809528232283A7E0E9
:10087000B0E01197F1F7218182238183A3E2B0E0F8
:100880001197F1F780817894EFECF0E03197F1F770
:10089000982381E009F480E00895FC0190810180B3
:1008A000F281E02D892F809560FF12C0F89422819B
:1008B000822382838181892B8183A3E2B0E0119717
:1008C000F1F78281982B9283789487ED90E011C0A4
:1008D000F8942281822382838181892B8183AFEFE7
:1008E000B0E01197F1F78281982B928378948FE092
:1008F00090E00197F1F70895CF92DF92EF92FF9287
:100900000F931F93CF93DF931F92CDB7DEB76C0188
:10091000E62E08E010E0FF24F39461E08F2D8E2195
:1009200009F460E0C60149830E944D04FF0C0150A8
:10093000110949810115110581F7411115C0F8947C
:10094000D6011196ED91FC91129791818C91809531
:10095000892381831196ED91FC91129792818C915C
:1009600080958923828378940F90DF91CF911F9196
:100970000F91FF90EF90DF90CF900895CF92DF928C
:10098000EF92FF920F931F93CF93DF931F92CDB7F8
:10099000DEB78C01F62E40E065E579830E947C0489
:1009A000CF2C7981D72E760188E0E80EF11CF60174
:1009B00061916F0140E0C8010E947C04CE14DF0405
:1009C000B1F70F90DF91CF911F910F91FF90EF90B2
:1009D000DF90CF900895FC0190810180F281E02D9D
:1009E000F8948181292F20958223818378948DE743
:1009F00043E050E0815021F1DA011197F1F73081A5
:100A00003923C1F3F8948281822382838181892BE7
:100A100081837894ABE7B7E01197F1F7F89481817F
:100A200028232183A3E1B1E01197F1F78081982376
:100A300081E009F080E07894E3E6F6E03197F1F7A1
:100A40000895CF93DF93CDB7DEB761970FB6F894D3
:100A5000DEBF0FBECDBFE0919602F09197021386E4
:100A600015861486DF011B96CF0103961E92A817E8
:100A7000B907E1F7BE01665F7F4FCF010E940B0708
:100A8000882341F067E0CE010A960E941C049989F0
:100A9000891729F060E070E08EEF92EC59C08091E8
:100AA0009602909197020E94EB048823F1F1BE0117
:100AB0006F5F7F4FCE010A960E94BF068823A9F17F
:100AC00068E0CE0101960E941C04998589132DC00F
:100AD000698148E0649FB00111248A81282F30E0A9
:100AE000322F2227330F330F330F262B372B8A85D4
:100AF0008031C9F4688570E08F81AB01481B5109D2
:100B0000CA019695982F8827979587950E94A50DDD
:100B100060517109207F53E0220F331F5A95E1F78E
:100B2000620F731F04C0B90102C060E874EE61383F
:100B300054EE75070CF4AECF072E000C880B990B02
:100B40000E947D0E20E030E040E05CE30E94320F26
:100B500061960FB6F894DEBF0FBECDBFDF91CF9187
:100B600008954F925F926F927F928F929F92AF9271
:100B7000BF92EF92FF920F931F93CF93DF93EC01FD
:100B800097FF04C0CC27DD27C81BD90B1816190600
:100B90003CF481E090E090937A028093790206C061
:100BA000892B21F010927A021092790208E010E06D
:100BB00084E0E82EF12C209709F4D2C00E9467034C
:100BC00080908D0290908E02A0908F02B090900243
:100BD0002B013C01481859086A087B0880907B0269
:100BE00090907C02A0907D02B0907E02481459043F
:100BF0006A047B0400F360938D0270938E028093ED
:100C00008F02909390022091790230917A02809124
:100C10008102909182022130310589F401969093EE
:100C200082028093810220917F023091800282179C
:100C30009307C1F4109282021092810213C0892B93
:100C400041F480917F029091800290938202809380
:100C50008102809181029091820201979093820299
:100C600080938102219720918302309184028091A8
:100C70008102909182022130310581F4B7010E94F6
:100C8000A50D81309105B9F11CF4892BF1F093CFBA
:100C900082309105D9F1039769F08DCFB8010E9498
:100CA000A50D8830910508F086CFFC01EC5CFF4F64
:100CB0000C94B90D6FEF70E0809185020E940803DB
:100CC00061E00AC060E070E002C06FEF70E0809108
:100CD00085020E94080360E0809189020E948002E0
:100CE0006FEF70E033C06FEF70E0809185020E947B
:100CF000080360E025C06FEF70E002C060E070E0C4
:100D0000809185020E94080360E007C06FEF70E0E9
:100D1000809185020E94080361E0809189020E940F
:100D200080026FEF70E0809187020E94080361E00B
:100D300012C06FEF70E0809185020E94080361E0AD
:100D4000809189020E94800260E070E080918702B9
:100D50000E94080360E080918B020E9480022BCFEA
:100D6000DF91CF911F910F91FF90EF90BF90AF90C7
:100D70009F908F907F906F905F904F900895AF926B
:100D8000BF92CF92DF92EF92FF920F931F93CF9378
:100D9000DF938B01BC0180919602909197020E9493
:100DA000BE0440E06EEB80919602909197020E9403
:100DB0007C04E801680189E0C80ED11CA09096026D
:100DC000B090970288E0E82EF12C01E010E0C50118
:100DD0000E9429048111102B000F81E0E81AF1080C
:100DE000B1F71993CC15DD0549F7809196029091E2
:100DF00097020E94EB0491E0813009F090E0892F86
:100E0000DF91CF911F910F91FF90EF90DF90CF90E6
:100E1000BF90AF900895AF92BF92CF92DF92EF92C2
:100E2000FF920F931F93CF93DF931F92CDB7DEB73F
:100E30005C01D62EE72EFC018585811105C0C50118
:100E40000E94EB04811106C0F501138615861486F5
:100E500080E065C040E060EFC5010E947C0401E0D5
:100E6000F12CC12C11E0C5010E942904682FC50195
:100E700069830E9429046981613019F48130B9F4D1
:100E800033C04F2D50E068131BC0F5018385181740
:100E900030F4E40FF51F8381802349F402C0181752
:100EA00031F060E0193058F4F501148708C0F501FD
:100EB000EF0DF11D8381802B838361E009C0C12E7A
:100EC000F501E40FF51F9381802F8095892383839B
:100ED000C5010E944D041F5F000F11F4F39401E05F
:100EE000F7E0FF1508F0BFCF113408F4ADCFF501DE
:100EF000C386C11002C081E08587F5018381882304
:100F000009F4A2CFD5011396ED2DFE2D9501255F95
:100F10003F4F8D918193A217B307D9F781E00F90CE
:100F2000DF91CF911F910F91FF90EF90DF90CF90C5
:100F3000BF90AF9008950F931F93CF93DF93CDB7DA
:100F4000DEB729970FB6F894DEBF0FBECDBFFC0108
:100F50002081203161F18C0180919602909197025D
:100F60000E94EB04882309F1BE016F5F7F4FC80127
:100F70000E94BF068823C9F068E0CE0101960E9456
:100F80001C049985891311C08D818F3361F020F481
:100F90008F3159F489E00CC08F3519F08F3739F053
:100FA00004C08BE005C08AE003C080E001C08CE093
:100FB00029960FB6F894DEBF0FBECDBFDF91CF915B
:100FC0001F910F910895009769F0FC010190002096
:100FD000E9F73197AF01481B590BBC018CED91E04B
:100FE0000C94140180E090E008958F929F92AF924C
:100FF000BF92CF92DF92EF92FF92CF93DF938091D7
:101000009602909197020E94EB0440E06CEC809174
:101010009602909197020E947C044091910264E4B0
:1010200080919602909197020E947C048091930295
:10103000882309F445C0E0919202E950E33040F47E
:10104000F0E0EE0FFF1FE85FFE4FC081D18102C0CC
:10105000CEEED2E080919402882311F1809191022A
:1010600081111EC00E94C6034B015C016E01DD0FA1
:10107000EE08FF0880919602909197020E94290441
:101080008130F1F00E94C603DC01CB018C199D096F
:10109000AE09BF0988159905AA05BB0558F310C00C
:1010A000BE01DD0F880B990BDF91CF91FF90EF9080
:1010B000DF90CF90BF90AF909F908F900C948C0357
:1010C000DF91CF91FF90EF90DF90CF90BF90AF90E6
:1010D0009F908F900895CF93DF93CDB7DEB7A997F8
:1010E0000FB6F894DEBF0FBECDBF789484B5826092
:1010F00084BD84B5816084BD85B5826085BD85B5BC
:10110000816085BD80916E00816080936E00109239
:1011100081008091810082608093810080918100B4
:101120008160809381008091800081608093800045
:101130008091B10084608093B1008091B0008160A3
:101140008093B00080917A00846080937A008091CF
:101150007A00826080937A0080917A008160809327
:101160007A0080917A00806880937A001092C100A2
:10117000E091EC01F091ED0182E08083E091E801E3
:10118000F091E9011082E091EA01F091EB018FEC1E
:1011900080831092F401E091F001F091F10186E07A
:1011A0008083E091EE01F091EF0180818061808386
:1011B000E091EE01F091EF01808188608083E09101
:1011C000EE01F091EF01808180688083E091EE0173
:1011D000F091EF0180818F7D80838EE191E00E940C
:1011E000E3078FE291E00E94E30782E391E00E942F
:1011F000E3078FE291E00E94E307E0919602F0910D
:101200009702138615861486DF011B9633961E926D
:10121000AE17BF07E1F7109295027E012AE2E20EB7
:10122000F11C4AE0842E912CA12CB12C77247394CC
:10123000BE016E5D7F4F80919602909197020E9451
:101240000B07882309F471C08E010E5D1F4FD80172
:101250008D918D01282F30E040E050E019A2FE0171
:10126000B1966F01CA01B901A50194010E949413BE
:10127000605DD6016E936D01211531054105510563
:1012800089F7CD010E94E3070E151F0501F78FE2D4
:1012900091E00E94E30767E0CE0182960E941C0461
:1012A00099A58913C5CF80919102811127C08091A2
:1012B0009602909197020E94EB04BE016E5D7F4FF3
:1012C00080919602909197020E94BE0440E064EBE8
:1012D00080919602909197020E947C0480919602E0
:1012E000909197020E942904182F80919602909164
:1012F00097020E94EB04112309F4D6C010919202C8
:10130000CE0182960E949B07811718F48091920269
:1013100004C0CE0182960E949B0780939202809126
:1013200095028F5F8093950283CF88E0E3ECF1E034
:10133000DF011D928A95E9F78091000190910101EA
:101340000E940B0268EE73E080E090E00E948C0344
:101350000E94F5070E9421056093D2017093D3018A
:101360008093D4019093D5010E94C6036093D60167
:101370007093D7018093D8019093D90144244A9463
:10138000542C612C712CAA24A394B12C24E0222E7D
:10139000312C38E8832E31E0932E8E010F5F1F4FE2
:1013A0008091DA019091DB01892B69F50E94C603D7
:1013B000C090D601D090D701E090D801F090D9012B
:1013C000DC01CB018C199D09AE09BF09813197421F
:1013D000A105B10508F458C00E94C6036093D60168
:1013E0007093D7018093D8019093D9010E94F5079B
:1013F0000E9421056093D2017093D3018093D401A0
:101400009093D50141C08091CE019091CF01A091E0
:10141000D001B091D101181619061A061B060CF05E
:101420004FC04091040150910501609106017091F7
:1014300007014F5F5F4F6F4F7F4F41155105F1E03F
:101440006F077105A4F54093040150930501609363
:101450000601709307010197A109B1098093CE019C
:101460009093CF01A093D001B093D10181E090E09F
:101470000E94B1056091020170910301072E000CDA
:10148000880B990B0E948C038CED91E00E94610106
:101490002091C1013091C201892B09F453C021155B
:1014A000310509F463C24EC07092910227CF1092A9
:1014B0000401109205011092060110920701CBCF92
:1014C0000097A105B10569F1409104015091050112
:1014D000609106017091070141505109610971093C
:1014E00077FD09C040930401509305016093060104
:1014F0007093070108C04092040150920501609268
:101500000601709207010196A11DB11D8093CE01C5
:101510009093CF01A093D001B093D1018FEF9FEFB3
:10152000A7CF1092DB011092DA0160E070E08091A9
:1015300085020E94080360E070E0809187020E94AB
:101540000803A2CF232B09F40EC288E0A9EBB1E077
:10155000E82F1D92EA95E9F7A1EBB1E01D928A957B
:10156000E9F7E3ECF1E001900020E9F73197CF01D2
:10157000835C91407C0192E0E916F104ACF042E01A
:1015800050E063EC71E089EB91E00E94B70FA2E0BC
:10159000EA16F10449F0A7014250510965EC71E0E7
:1015A00081EB91E00E94B70F88E0E3ECF1E011924B
:1015B0008A95E9F71092C2011092C1011092CC01F4
:1015C0001092CB0162E571E089EB91E00E94A40FDB
:1015D000892B69F48091DA019091DB01892B19F054
:1015E00085E591E002C089E591E00E9424026DE565
:1015F00071E089EB91E00E94A40F892B21F4B09255
:10160000DB01A092DA0160E671E089EB91E00E94D3
:10161000A40F892B81F41092DB011092DA0160E0B3
:1016200070E0809185020E94080360E070E0809184
:1016300087020E94080363E671E089EB91E00E9453
:10164000A40F892B41F5809104019091050120910F
:101650000601309107018093AD019093AE01209374
:10166000AF013093B0013F932F939F938F9386E602
:1016700091E09F938F931F930F930E94C60FC80111
:101680000E9424028BE591E00E9424020FB6F89498
:10169000DEBF0FBECDBF6BE671E089EB91E00E942B
:1016A000A40F892B31F540E150E060E070E081EB60
:1016B00091E00E9467126093AD017093AE01809338
:1016C000AF019093B001C0900401D0900501E0906B
:1016D0000601F0900701DC01CB018C199D09AE09D0
:1016E000BF098093CE019093CF01A093D001B09316
:1016F000D1016EE671E089EB91E00E94A40F892B85
:10170000C1F440E150E060E070E081EB91E00E94C4
:1017100067126093AD017093AE018093AF01909317
:10172000B0016093040170930501809306019093CA
:10173000070161E771E089EB91E00E94A40F892B1A
:1017400079F440E150E060E070E081EB91E00E94CC
:1017500067127093010160930001CB010E940B029C
:1017600064E771E089EB91E00E94A40F892B09F0F6
:1017700040C0C090D201D090D301E090D401F0904D
:10178000D50120E030E048E452ECC701B6010E94E8
:10179000400E87FD0AC020E030E048E452E4C70173
:1017A000B6010E942D0F18162CF487E791E00E94D5
:1017B00024021FC0A7019601C701B6010E94D40DE3
:1017C0000E94450E7F936F9386E691E09F938F93DF
:1017D0001F930F930E94C60FC8010E9424028BE53D
:1017E00091E00E9424020F900F900F900F900F90A5
:1017F0000F906BE771E089EB91E00E94A40F892BB9
:1018000021F48EE791E00E94240262E871E089EB06
:1018100091E00E94A40F892BA1F540910401509101
:10182000050160910601709107018091CE019091B0
:10183000CF01A091D001B091D101840F951FA61FB7
:10184000B71F8093AD019093AE01A093AF01B09309
:10185000B001BF93AF939F938F9386E691E09F93E0
:101860008F931F930F930E94C60FC8010E942402FA
:101870008BE591E00E9424020FB6F894DEBF0FBE04
:10188000CDBF65E871E089EB91E00E94A40F892B40
:10189000C9F4809101018F93809100018F939F92F1
:1018A0008F921F930F930E94C60FC8010E942402BB
:1018B0008BE591E00E9424020F900F900F900F9003
:1018C0000F900F906DE871E089EB91E00E94A40FFA
:1018D000892B21F489E591E00E94240260E971E0FE
:1018E00089EB91E00E94A40F892B69F48091830217
:1018F00090918402019719F489E591E002C083E98F
:1019000091E00E94240267E971E089EB91E00E9476
:10191000A40F892B41F4B0928402A09283023092EA
:10192000800220927F026AE971E089EB91E00E94D7
:10193000A40F892B61F4E2E0F0E0F0938402E093DD
:10194000830288E090E09093800280937F026DE9AB
:1019500071E089EB91E00E94A40F892B21F480EAC9
:1019600091E00E9424020E9401021ACD8CED91E0C8
:101970000E943F018093CD018332E9F08A3309F45C
:1019800083CD2091CB013091CC01A9014F5F5F4FF6
:101990005093CC014093CB01F901ED53FE4F80836E
:1019A000483051050CF470CD87E090E09093CC0165
:1019B0008093CB0169CDB092C201A092C10164CDE8
:1019C0001092DF011092DE0188EE93E0A0E0B0E01B
:1019D0008093E0019093E101A093E201B093E301D1
:1019E00082E191E09093DD018093DC0185EC90E051
:1019F0009093E9018093E80184EC90E09093EB01EF
:101A00008093EA0180EC90E09093ED018093EC01EB
:101A100081EC90E09093EF018093EE0182EC90E0F6
:101A20009093F1018093F00186EC90E09093F301A4
:101A30008093F2011092F5011092F6011092F701D5
:101A40001092F80160E08FE00E94CC02EDECF1E032
:101A5000E491E093A402E9EBF1E0E491F0E0EE0F11
:101A6000FF1FE056FE4F859194919093A6028093BC
:101A7000A5021092AF021092B1021092B002EFEAEA
:101A8000F2E0129282E0E73AF807D9F783E292E0B7
:101A90009093A3028093A20284EA92E0909397022B
:101AA00080939602109295021092910289E08093A1
:101AB000920281E0809393028093940210928202BA
:101AC0001092810210927A021092790210928D0285
:101AD00010928E0210928F021092900280E19EE08E
:101AE0009093800280937F0283E090E0909386023F
:101AF000809385028BE090E0909388028093870228
:101B00008CE090E090938A02809389028DE090E0CF
:101B100090938C0280938B0281E090E090938402FA
:101B20008093830261E083E00E94CC0261E08091B7
:101B300087020E94CC0261E0809189020E94CC025F
:101B400061E080918B020C94CC0297FB072E16F477
:101B5000009407D077FD09D00E94BF0D07FC05D087
:101B60003EF4909581959F4F0895709561957F4FB4
:101B70000895EE0FFF1F0590F491E02D0994AA1B24
:101B8000BB1B51E107C0AA1FBB1FA617B70710F068
:101B9000A61BB70B881F991F5A95A9F7809590959A
:101BA000BC01CD0108955058BB27AA270E94EB0D18
:101BB0000C94F30E0E94E50E38F00E94EC0E20F01B
:101BC00039F49F3F19F426F40C94E20E0EF4E095DC
:101BD000E7FB0C94DC0EE92F0E94040F58F3BA17B0
:101BE000620773078407950720F079F4A6F50C9433
:101BF000260F0EF4E0950B2EBA2FA02D0B01B90184
:101C000090010C01CA01A0011124FF27591B99F072
:101C1000593F50F4503E68F11A16F040A22F232F7E
:101C2000342F4427585FF3CF469537952795A795CE
:101C3000F0405395C9F77EF41F16BA0B620B730B75
:101C4000840BBAF09150A1F0FF0FBB1F661F771FE6
:101C5000881FC2F70EC0BA0F621F731F841F48F49B
:101C6000879577956795B795F7959E3F08F0B0CF24
:101C70009395880F08F09927EE0F9795879508950B
:101C80000E94B80E08F481E008950E944C0E6894FA
:101C9000B1110C94270F08950E940C0F88F09F57E4
:101CA00098F0B92F9927B751B0F0E1F0660F771F80
:101CB000881F991F1AF0BA95C9F714C0B13091F076
:101CC0000E94260FB1E008950C94260F672F782FFD
:101CD0008827B85F39F0B93FCCF38695779567953B
:101CE000B395D9F73EF490958095709561957F4FA7
:101CF0008F4F9F4F0895E89409C097FB3EF490954D
:101D00008095709561957F4F8F4F9F4F9923A9F0D4
:101D1000F92F96E9BB279395F69587957795679563
:101D2000B795F111F8CFFAF4BB0F11F460FF1BC0A7
:101D30006F5F7F4F8F4F9F4F16C0882311F096E93A
:101D400011C0772321F09EE8872F762F05C06623E8
:101D500071F096E8862F70E060E02AF09A95660FA1
:101D6000771F881FDAF7880F9695879597F908955A
:101D7000990F0008550FAA0BE0E8FEEF161617069C
:101D8000E807F907C0F012161306E407F50798F004
:101D9000621B730B840B950B39F40A2661F0232B1D
:101DA000242B252B21F408950A2609F4A140A69599
:101DB0008FEF811D811D089597F99F6780E870E07E
:101DC00060E008959FEF80EC089500240A941616B1
:101DD000170618060906089500240A941216130619
:101DE000140605060895092E0394000C11F48823A7
:101DF00052F0BB0F40F4BF2B11F460FF04C06F5FC3
:101E00007F4F8F4F9F4F089557FD9058440F551F98
:101E100059F05F3F71F04795880F97FB991F61F06C
:101E20009F3F79F087950895121613061406551FE3
:101E3000F2CF4695F1DF08C0161617061806991F4F
:101E4000F1CF86957105610508940895E894BB2744
:101E500066277727CB0197F908950E94B80E08F4FA
:101E60008FEF08950E94450F0C94F30E0E94E50E2B
:101E700038F00E94EC0E20F0952311F00C94DC0E4B
:101E80000C94E20E11240C94270F0E94040F70F39F
:101E9000959FC1F3950F50E0551F629FF001729F0F
:101EA000BB27F00DB11D639FAA27F00DB11DAA1F1E
:101EB000649F6627B00DA11D661F829F2227B00D6B
:101EC000A11D621F739FB00DA11D621F839FA00DF6
:101ED000611D221F749F3327A00D611D231F849F46
:101EE000600D211D822F762F6A2F11249F5750409D
:101EF0009AF0F1F088234AF0EE0FFF1FBB1F661F18
:101F0000771F881F91505040A9F79E3F510580F0E0
:101F10000C94DC0E0C94270F5F3FE4F3983ED4F34F
:101F2000869577956795B795F795E7959F5FC1F784
:101F3000FE2B880F911D9695879597F9089581E05E
:101F400090E0F8940C940714FB01DC018D9181342E
:101F50001CF08B350CF4805E619161341CF06B35A4
:101F60000CF4605E861B611189F3990B0895FB01E7
:101F7000DC014150504048F001900D920020C9F71B
:101F800001C01D9241505040E0F70895AEE0B0E02E
:101F9000ECECFFE00C94CF130D891E8986E08C8356
:101FA0001A8309838FEF9FE79E838D83AE01475E7F
:101FB0005F4F6F89788DCE0101960E94E90F2F81C6
:101FC0003885F801E20FF31F10822E96E4E00C949E
:101FD000EB13ACE0B0E0EFEEFFE00C94C1137C013A
:101FE0006B018A01FC0117821682838181FFBDC1CA
:101FF000CE0101964C01F7019381F60193FD859185
:1020000093FF81916F01882309F4ABC1853239F4C4
:1020100093FD859193FF81916F01853229F4B7017A
:1020200090E00E94D111E7CF512C312C20E02032DA
:10203000A0F48B3269F030F4803259F0833269F4C5
:1020400020612CC08D3239F0803339F4216026C0F4
:102050002260246023C0286021C027FD27C030ED06
:10206000380F3A3078F426FF06C0FAE05F9E300D54
:102070001124532E13C08AE0389E300D1124332EC4
:1020800020620CC08E3221F426FD6BC1206406C094
:102090008C3611F4206802C0883641F4F60193FDB5
:1020A000859193FF81916F018111C1CF982F9F7D01
:1020B0009554933028F40C5F1F4FFFE3F9830DC054
:1020C000833631F0833771F0833509F05BC022C06D
:1020D000F801808189830E5F1F4F44244394512C63
:1020E000540115C03801F2E06F0E711CF801A08098
:1020F000B18026FF03C0652D70E002C06FEF7FEF57
:10210000C5012C870E94C6112C0183012C852F77D5
:10211000222E17C03801F2E06F0E711CF801A0806A
:10212000B18026FF03C0652D70E002C06FEF7FEF26
:10213000C5012C870E94BB112C012C852068222E02
:10214000830123FC1BC0832D90E048165906B0F490
:10215000B70180E290E00E94D1113A94F4CFF501EA
:1021600027FC859127FE81915F01B70190E00E94D5
:10217000D11131103A94F1E04F1A51084114510431
:1021800071F7E5C0843611F0893639F5F80127FF7B
:1021900007C060817181828193810C5F1F4F08C0ED
:1021A00060817181072E000C880B990B0E5F1F4F09
:1021B0002F76722E97FF09C0909580957095619546
:1021C0007F4F8F4F9F4F2068722E2AE030E0A4018E
:1021D0000E940912A82EA81844C0853729F42F7E22
:1021E000B22E2AE030E025C0F22FF97FBF2E8F36C5
:1021F000C1F018F4883579F0B4C0803719F0883709
:1022000021F0AFC02F2F2061B22EB4FE0DC08B2D58
:102210008460B82E09C024FF0AC09F2F9660B92E93
:1022200006C028E030E005C020E130E002C020E137
:1022300032E0F801B7FE07C060817181828193812D
:102240000C5F1F4F06C06081718180E090E00E5FDF
:102250001F4FA4010E940912A82EA818FB2DFF777A
:102260007F2E76FE0BC0372D3E7FA51450F474FEF2
:102270000AC072FC08C0372D3E7E05C0BA2C372D2F
:1022800003C0BA2C01C0B52C34FF0DC0FE01EA0D0D
:10229000F11D8081803311F4397E09C032FF06C000
:1022A000B394B39404C0832F867809F0B39433FDBC
:1022B00013C030FF06C05A2CB31418F4530C5B182B
:1022C000B32CB31468F4B70180E290E03C870E941D
:1022D000D111B3943C85F5CFB31410F43B1801C071
:1022E000312C34FF12C0B70180E390E03C870E949C
:1022F000D1113C8532FF17C031FD03C088E790E063
:1023000002C088E590E0B7010CC0832F867859F0B1
:1023100031FF02C08BE201C080E237FD8DE2B701E0
:1023200090E00E94D111A51438F4B70180E390E049
:102330000E94D1115A94F7CFAA94F401EA0DF11D2D
:102340008081B70190E00E94D111A110F5CF332018
:1023500009F451CEB70180E290E00E94D1113A9485
:10236000F6CFF7018681978102C08FEF9FEF2C9601
:10237000E2E10C94DD13FC01059061507040011006
:10238000D8F7809590958E0F9F1F0895FC0161509E
:10239000704001900110D8F7809590958E0F9F1F87
:1023A00008950F931F93CF93DF93FB01238121FDAA
:1023B00003C08FEF9FEF28C022FF16C046815781D0
:1023C000248135814217530744F4A081B1819D01D6
:1023D0002F5F3F4F318320838C93268137812F5F7E
:1023E0003F4F3783268310C0EB01092F182F00843D
:1023F000F185E02D0995892BE1F68E819F8101966B
:102400009F838E83812F902FDF91CF911F910F910A
:102410000895FA01AA27283051F1203181F1E8947A
:102420006F936E7F6E5F7F4F8F4F9F4FAF4FB1E0C7
:102430003ED0B4E03CD0670F781F891F9A1FA11DC2
:10244000680F791F8A1F911DA11D6A0F711D811DC3
:10245000911DA11D20D009F468943F912AE0269F88
:1024600011243019305D3193DEF6CF010895462FE7
:102470004770405D4193B3E00FD0C9F7F6CF462FC8
:102480004F70405D4A3318F0495D31FD4052419331
:1024900002D0A9F7EACFB4E0A695979587957795EE
:1024A0006795BA95C9F700976105710508959B0175
:1024B000AC010A2E06945795479537952795BA95FE
:1024C000C9F7620F731F841F951FA01D0895A0E018
:1024D000B0E0EDE6F2E10C94C1135C016B017A010E
:1024E0006115710519F0FB0191838083E114F104FA
:1024F00029F0C7010297839708F0F1C0E501219602
:10250000F5011081812F90E00E947813892B11F042
:102510005E01F4CF1D3229F42196F501118101E00D
:1025200007C01B3221F4E5012296F501118100E07C
:10253000E114F10459F1F0E1EF16F10461F4103304
:10254000E1F488818F7D883569F5198122960260D2
:1025500070E1E72EF12C88E0E816F10439F12CF453
:10256000F2E0EF16F104C9F12AC08AE0E816F1049E
:1025700079F0E0E1EE16F10411F550E1E52EF12CD1
:10258000812C912CA12C68E0B62E2CC01033C9F2FE
:102590003AE0E32EF12C4CEC842E982CA82C4CE045
:1025A000B42E20C010E3E114F104A9F698E0E92E5E
:1025B000F12C812C912CA12C20E1B22E13C060E0D3
:1025C00070E080E090E897010F2C000C440B550B55
:1025D0000E94941349015A0105C0812C912CA12C11
:1025E00080E4B82E60E020E030E0A90127010F2C44
:1025F000000C660877081E01E0EDE10FEA3060F09C
:102600008FEB810F8A3110F4E9EC05C08FE9810F5F
:102610008A3128F5E9EAE10F8E2F90E08E159F05AB
:10262000F4F467FD18C082169306A406B50690F070
:10263000C301B2010E9484139B01AC012E0F311D16
:10264000411D511D213031054105F0E85F0710F4AF
:1026500061E001C06FEF2196F1011081CCCF802F96
:102660008170C114D10471F0662329F02197F6011D
:10267000D183C08307C001FF19C02297F601D1831F
:10268000C08314C067FF12C0811105C02FEF3FEF58
:102690004FEF5FE704C020E030E040E050E882E226
:1026A00090E09093B3028093B20216C0882341F069
:1026B00050954095309521953F4F4F4F5F4F0CC03F
:1026C00057FF0AC082E290E09093B3028093B20277
:1026D0002FEF3FEF4FEF5FE7B901CA0104C060E0A1
:1026E00070E080E090E0CDB7DEB7E2E10C94DD135E
:1026F00091110C948113803219F089508550C8F7DC
:102700000895992788270895DB018F939F930E944E
:10271000B613BF91AF91A29F800D911DA39F900D05
:10272000B29F900D11240895A1E21A2EAA1BBB1B83
:10273000FD010DC0AA1FBB1FEE1FFF1FA217B3078D
:10274000E407F50720F0A21BB30BE40BF50B661FA3
:10275000771F881F991F1A9469F760957095809567
:1027600090959B01AC01BD01CF0108950E94F81323
:10277000A59F900DB49F900DA49F800D911D1124D5
:1027800008952F923F924F925F926F927F928F9215
:102790009F92AF92BF92CF92DF92EF92FF920F93F0
:1027A0001F93CF93DF93CDB7DEB7CA1BDB0B0FB6FA
:1027B000F894DEBF0FBECDBF09942A8839884888B7
:1027C0005F846E847D848C849B84AA84B984C8844D
:1027D000DF80EE80FD800C811B81AA81B981CE0F44
:1027E000D11D0FB6F894DEBF0FBECDBFED01089529
:1027F000A29FB001B39FC001A39F700D811D112442
:10280000911DB29F700D811D1124911D0895F894A2
:02281000FFCFF8
:1028120020000800401F00005E00BC00770100009D
:1028220000009801140161013F015301DF01506E64
:1028320050466F637573205631612D6D7366000DBE
:102842000A004C6F6F6B696E6720666F7220746549
:102852006D70657261747572652073656E736F72E7
:1028620073004749003031230030302300464700CF
:102872004651004750002530345800534E00535003
:10288200005344004754004336230047430030328C
:102892002300474E00474400253032580047480085
:1028A200474200464623005346005348004756001D
:0428B200313023009E
:00000001FF
